{
  "contractName": "Record",
  "abi": [
    {
      "constant": true,
      "inputs": [
        {
          "name": "",
          "type": "uint256"
        }
      ],
      "name": "records",
      "outputs": [
        {
          "name": "",
          "type": "uint256"
        }
      ],
      "payable": false,
      "stateMutability": "view",
      "type": "function"
    },
    {
      "constant": true,
      "inputs": [],
      "name": "owner",
      "outputs": [
        {
          "name": "",
          "type": "address"
        }
      ],
      "payable": false,
      "stateMutability": "view",
      "type": "function"
    },
    {
      "constant": true,
      "inputs": [
        {
          "name": "",
          "type": "uint256"
        }
      ],
      "name": "data",
      "outputs": [
        {
          "name": "payload",
          "type": "string"
        },
        {
          "name": "signature",
          "type": "string"
        }
      ],
      "payable": false,
      "stateMutability": "view",
      "type": "function"
    },
    {
      "constant": false,
      "inputs": [
        {
          "name": "_usrAddress",
          "type": "address"
        },
        {
          "name": "_permission",
          "type": "bool"
        }
      ],
      "name": "modifyAccess",
      "outputs": [],
      "payable": false,
      "stateMutability": "nonpayable",
      "type": "function"
    },
    {
      "constant": false,
      "inputs": [
        {
          "name": "_record",
          "type": "uint256"
        },
        {
          "name": "_index",
          "type": "uint256"
        }
      ],
      "name": "addRecord",
      "outputs": [],
      "payable": false,
      "stateMutability": "nonpayable",
      "type": "function"
    },
    {
      "constant": true,
      "inputs": [
        {
          "name": "index",
          "type": "uint256"
        }
      ],
      "name": "getRecord",
      "outputs": [
        {
          "name": "",
          "type": "uint256"
        }
      ],
      "payable": false,
      "stateMutability": "view",
      "type": "function"
    }
  ],
  "bytecode": "0x6080604052336000806101000a81548173ffffffffffffffffffffffffffffffffffffffff021916908373ffffffffffffffffffffffffffffffffffffffff16021790555034801561005057600080fd5b506106c9806100606000396000f300608060405260043610610078576000357c0100000000000000000000000000000000000000000000000000000000900463ffffffff16806303e9e6091461007d578063130cb150146100be57806334461067146100f55780638da5cb5b14610136578063a49efc861461018d578063f0ba8440146101dc575b600080fd5b34801561008957600080fd5b506100a8600480360381019080803590602001909291905050506102ee565b6040518082815260200191505060405180910390f35b3480156100ca57600080fd5b506100f36004803603810190808035906020019092919080359060200190929190505050610308565b005b34801561010157600080fd5b50610120600480360381019080803590602001909291905050506103e9565b6040518082815260200191505060405180910390f35b34801561014257600080fd5b5061014b610403565b604051808273ffffffffffffffffffffffffffffffffffffffff1673ffffffffffffffffffffffffffffffffffffffff16815260200191505060405180910390f35b34801561019957600080fd5b506101da600480360381019080803573ffffffffffffffffffffffffffffffffffffffff169060200190929190803515159060200190929190505050610428565b005b3480156101e857600080fd5b5061020760048036038101908080359060200190929190505050610549565b604051808060200180602001838103835285818151815260200191508051906020019080838360005b8381101561024b578082015181840152602081019050610230565b50505050905090810190601f1680156102785780820380516001836020036101000a031916815260200191505b50838103825284818151815260200191508051906020019080838360005b838110156102b1578082015181840152602081019050610296565b50505050905090810190601f1680156102de5780820380516001836020036101000a031916815260200191505b5094505050505060405180910390f35b60006003826010811015156102ff57fe5b01549050919050565b60011515600160003373ffffffffffffffffffffffffffffffffffffffff1673ffffffffffffffffffffffffffffffffffffffff16815260200190815260200160002060009054906101000a900460ff1615151415156103d0576040517f08c379a00000000000000000000000000000000000000000000000000000000081526004018080602001828103825260168152602001807f53656e646572206e6f7420617574686f72697a65642e0000000000000000000081525060200191505060405180910390fd5b816003826010811015156103e057fe5b01819055505050565b6003816010811015156103f857fe5b016000915090505481565b6000809054906101000a900473ffffffffffffffffffffffffffffffffffffffff1681565b6000809054906101000a900473ffffffffffffffffffffffffffffffffffffffff168073ffffffffffffffffffffffffffffffffffffffff163373ffffffffffffffffffffffffffffffffffffffff161415156104ed576040517f08c379a00000000000000000000000000000000000000000000000000000000081526004018080602001828103825260168152602001807f53656e646572206e6f7420617574686f72697a65642e0000000000000000000081525060200191505060405180910390fd5b81600160008573ffffffffffffffffffffffffffffffffffffffff1673ffffffffffffffffffffffffffffffffffffffff16815260200190815260200160002060006101000a81548160ff021916908315150217905550505050565b6002602052806000526040600020600091509050806000018054600181600116156101000203166002900480601f0160208091040260200160405190810160405280929190818152602001828054600181600116156101000203166002900480156105f55780601f106105ca576101008083540402835291602001916105f5565b820191906000526020600020905b8154815290600101906020018083116105d857829003601f168201915b505050505090806001018054600181600116156101000203166002900480601f0160208091040260200160405190810160405280929190818152602001828054600181600116156101000203166002900480156106935780601f1061066857610100808354040283529160200191610693565b820191906000526020600020905b81548152906001019060200180831161067657829003601f168201915b50505050509050825600a165627a7a723058205bca437e8a522501db590b97262cde992202cff9abb8b479bf84a44bf73e0e0f0029",
  "source": "pragma solidity ^0.4.0;\r\n\r\n\r\ncontract Record {\r\n    //access control\r\n    address public owner = msg.sender;\r\n    mapping (address => bool) private allowed;\r\n    mapping (uint256 => Records) public data;\r\n\r\n    modifier onlyBy(address _account)\r\n    {\r\n        require(\r\n            msg.sender == _account,\r\n            \"Sender not authorized.\"\r\n        );\r\n        _;\r\n    }\r\n    modifier hasAccess {\r\n\r\n        require(\r\n        allowed[msg.sender] == true,\r\n            \"Sender not authorized.\"\r\n        );\r\n        _;\r\n    }\r\n    //data structure\r\n    struct Records {\r\n        string payload;\r\n        string signature;\r\n    }\r\n\r\n    //data\r\n    uint[16] public records;//testing -todo replace\r\n\r\n\r\n    function modifyAccess(address _usrAddress , bool _permission) public onlyBy(owner) {\r\n\r\n        allowed[_usrAddress] = _permission;\r\n\r\n    }\r\n\r\n\r\n\r\n    function addRecord(uint _record , uint _index) public hasAccess {\r\n        records[_index] = _record;\r\n    }\r\n\r\n    function getRecord(uint index) public view returns (uint) {\r\n        return records[index];\r\n    }\r\n\r\n}\r\n",
  "sourcePath": "C:\\Users\\Edwin\\OneDrive\\2018\\Second Term\\Projects\\Oracle\\src\\onChain\\contracts\\Record.sol",
  "compiler": {
    "name": "solc",
    "version": "0.4.24+commit.e67f0147.Emscripten.clang"
  },
  "schemaVersion": "2.0.1",
  "updatedAt": "2018-08-14T22:34:04.525Z"
}