{
  "contractName": "Record",
  "abi": [
    {
      "constant": true,
      "inputs": [],
      "name": "index",
      "outputs": [
        {
          "name": "",
          "type": "uint256"
        }
      ],
      "payable": false,
      "stateMutability": "view",
      "type": "function"
    },
    {
      "constant": true,
      "inputs": [],
      "name": "owner",
      "outputs": [
        {
          "name": "",
          "type": "address"
        }
      ],
      "payable": false,
      "stateMutability": "view",
      "type": "function"
    },
    {
      "constant": true,
      "inputs": [
        {
          "name": "",
          "type": "uint256"
        }
      ],
      "name": "recordData",
      "outputs": [
        {
          "name": "payload",
          "type": "string"
        },
        {
          "name": "eventID",
          "type": "string"
        }
      ],
      "payable": false,
      "stateMutability": "view",
      "type": "function"
    },
    {
      "inputs": [],
      "payable": false,
      "stateMutability": "nonpayable",
      "type": "constructor"
    },
    {
      "constant": true,
      "inputs": [],
      "name": "getOwner",
      "outputs": [
        {
          "name": "",
          "type": "address"
        }
      ],
      "payable": false,
      "stateMutability": "view",
      "type": "function"
    },
    {
      "constant": false,
      "inputs": [
        {
          "name": "_usrAddress",
          "type": "address"
        },
        {
          "name": "_permission",
          "type": "bool"
        }
      ],
      "name": "modifyAccess",
      "outputs": [],
      "payable": false,
      "stateMutability": "nonpayable",
      "type": "function"
    },
    {
      "constant": true,
      "inputs": [
        {
          "name": "_usrAddress",
          "type": "address"
        }
      ],
      "name": "canAccess",
      "outputs": [
        {
          "name": "",
          "type": "bool"
        }
      ],
      "payable": false,
      "stateMutability": "view",
      "type": "function"
    },
    {
      "constant": false,
      "inputs": [
        {
          "name": "_record",
          "type": "uint256"
        },
        {
          "name": "_index",
          "type": "uint256"
        }
      ],
      "name": "addRecord",
      "outputs": [],
      "payable": false,
      "stateMutability": "nonpayable",
      "type": "function"
    },
    {
      "constant": false,
      "inputs": [
        {
          "name": "_payload",
          "type": "string"
        },
        {
          "name": "_eventID",
          "type": "string"
        }
      ],
      "name": "addData",
      "outputs": [
        {
          "name": "",
          "type": "uint256"
        }
      ],
      "payable": false,
      "stateMutability": "nonpayable",
      "type": "function"
    },
    {
      "constant": true,
      "inputs": [
        {
          "name": "_index",
          "type": "uint256"
        }
      ],
      "name": "getData",
      "outputs": [
        {
          "name": "",
          "type": "string"
        },
        {
          "name": "",
          "type": "string"
        }
      ],
      "payable": false,
      "stateMutability": "view",
      "type": "function"
    },
    {
      "constant": true,
      "inputs": [
        {
          "name": "_index",
          "type": "uint256"
        }
      ],
      "name": "getPayload",
      "outputs": [
        {
          "name": "",
          "type": "string"
        }
      ],
      "payable": false,
      "stateMutability": "view",
      "type": "function"
    },
    {
      "constant": true,
      "inputs": [
        {
          "name": "_index",
          "type": "uint256"
        }
      ],
      "name": "getSignature",
      "outputs": [
        {
          "name": "",
          "type": "string"
        }
      ],
      "payable": false,
      "stateMutability": "view",
      "type": "function"
    },
    {
      "constant": true,
      "inputs": [
        {
          "name": "_index",
          "type": "uint256"
        }
      ],
      "name": "getRecord",
      "outputs": [
        {
          "name": "",
          "type": "uint256"
        }
      ],
      "payable": false,
      "stateMutability": "view",
      "type": "function"
    }
  ],
  "bytecode": "0x608060405234801561001057600080fd5b50336000806101000a81548173ffffffffffffffffffffffffffffffffffffffff021916908373ffffffffffffffffffffffffffffffffffffffff16021790555060006011819055506001601260008060009054906101000a900473ffffffffffffffffffffffffffffffffffffffff1673ffffffffffffffffffffffffffffffffffffffff1673ffffffffffffffffffffffffffffffffffffffff16815260200190815260200160002060006101000a81548160ff02191690831515021790555061100d806100e16000396000f3006080604052600436106100ba576000357c0100000000000000000000000000000000000000000000000000000000900463ffffffff1680630178fe3f146100bf57806302a569e6146101d157806303e9e60914610277578063130cb150146102b857806318a9d222146102ef5780631d2db6c81461034a5780632986c0e5146103f0578063528407e51461041b578063893d20e8146104de5780638da5cb5b14610535578063a49efc861461058c578063cd58b8d6146105db575b600080fd5b3480156100cb57600080fd5b506100ea600480360381019080803590602001909291905050506106ed565b604051808060200180602001838103835285818151815260200191508051906020019080838360005b8381101561012e578082015181840152602081019050610113565b50505050905090810190601f16801561015b5780820380516001836020036101000a031916815260200191505b50838103825284818151815260200191508051906020019080838360005b83811015610194578082015181840152602081019050610179565b50505050905090810190601f1680156101c15780820380516001836020036101000a031916815260200191505b5094505050505060405180910390f35b3480156101dd57600080fd5b506101fc6004803603810190808035906020019092919050505061085d565b6040518080602001828103825283818151815260200191508051906020019080838360005b8381101561023c578082015181840152602081019050610221565b50505050905090810190601f1680156102695780820380516001836020036101000a031916815260200191505b509250505060405180910390f35b34801561028357600080fd5b506102a260048036038101908080359060200190929190505050610915565b6040518082815260200191505060405180910390f35b3480156102c457600080fd5b506102ed600480360381019080803590602001909291908035906020019092919050505061092f565b005b3480156102fb57600080fd5b50610330600480360381019080803573ffffffffffffffffffffffffffffffffffffffff169060200190929190505050610a10565b604051808215151515815260200191505060405180910390f35b34801561035657600080fd5b5061037560048036038101908080359060200190929190505050610a6d565b6040518080602001828103825283818151815260200191508051906020019080838360005b838110156103b557808201518184015260208101905061039a565b50505050905090810190601f1680156103e25780820380516001836020036101000a031916815260200191505b509250505060405180910390f35b3480156103fc57600080fd5b50610405610b25565b6040518082815260200191505060405180910390f35b34801561042757600080fd5b506104c8600480360381019080803590602001908201803590602001908080601f0160208091040260200160405190810160405280939291908181526020018383808284378201915050505050509192919290803590602001908201803590602001908080601f0160208091040260200160405190810160405280939291908181526020018383808284378201915050505050509192919290505050610b2b565b6040518082815260200191505060405180910390f35b3480156104ea57600080fd5b506104f3610c79565b604051808273ffffffffffffffffffffffffffffffffffffffff1673ffffffffffffffffffffffffffffffffffffffff16815260200191505060405180910390f35b34801561054157600080fd5b5061054a610ca2565b604051808273ffffffffffffffffffffffffffffffffffffffff1673ffffffffffffffffffffffffffffffffffffffff16815260200191505060405180910390f35b34801561059857600080fd5b506105d9600480360381019080803573ffffffffffffffffffffffffffffffffffffffff169060200190929190803515159060200190929190505050610cc7565b005b3480156105e757600080fd5b5061060660048036038101908080359060200190929190505050610de8565b604051808060200180602001838103835285818151815260200191508051906020019080838360005b8381101561064a57808201518184015260208101905061062f565b50505050905090810190601f1680156106775780820380516001836020036101000a031916815260200191505b50838103825284818151815260200191508051906020019080838360005b838110156106b0578082015181840152602081019050610695565b50505050905090810190601f1680156106dd5780820380516001836020036101000a031916815260200191505b5094505050505060405180910390f35b6060806013600084815260200190815260200160002060000160136000858152602001908152602001600020600101818054600181600116156101000203166002900480601f0160208091040260200160405190810160405280929190818152602001828054600181600116156101000203166002900480156107b15780601f10610786576101008083540402835291602001916107b1565b820191906000526020600020905b81548152906001019060200180831161079457829003601f168201915b50505050509150808054600181600116156101000203166002900480601f01602080910402602001604051908101604052809291908181526020018280546001816001161561010002031660029004801561084d5780601f106108225761010080835404028352916020019161084d565b820191906000526020600020905b81548152906001019060200180831161083057829003601f168201915b5050505050905091509150915091565b6060601360008381526020019081526020016000206001018054600181600116156101000203166002900480601f0160208091040260200160405190810160405280929190818152602001828054600181600116156101000203166002900480156109095780601f106108de57610100808354040283529160200191610909565b820191906000526020600020905b8154815290600101906020018083116108ec57829003601f168201915b50505050509050919050565b600060018260108110151561092657fe5b01549050919050565b60011515601260003373ffffffffffffffffffffffffffffffffffffffff1673ffffffffffffffffffffffffffffffffffffffff16815260200190815260200160002060009054906101000a900460ff1615151415156109f7576040517f08c379a00000000000000000000000000000000000000000000000000000000081526004018080602001828103825260168152602001807f53656e646572206e6f7420617574686f72697a65642e0000000000000000000081525060200191505060405180910390fd5b81600182601081101515610a0757fe5b01819055505050565b6000601260008373ffffffffffffffffffffffffffffffffffffffff1673ffffffffffffffffffffffffffffffffffffffff16815260200190815260200160002060009054906101000a900460ff16151560011515149050919050565b6060601360008381526020019081526020016000206000018054600181600116156101000203166002900480601f016020809104026020016040519081016040528092919081815260200182805460018160011615610100020316600290048015610b195780601f10610aee57610100808354040283529160200191610b19565b820191906000526020600020905b815481529060010190602001808311610afc57829003601f168201915b50505050509050919050565b60115481565b600060011515601260003373ffffffffffffffffffffffffffffffffffffffff1673ffffffffffffffffffffffffffffffffffffffff16815260200190815260200160002060009054906101000a900460ff161515141515610bf5576040517f08c379a00000000000000000000000000000000000000000000000000000000081526004018080602001828103825260168152602001807f53656e646572206e6f7420617574686f72697a65642e0000000000000000000081525060200191505060405180910390fd5b6011600081548092919060010191905055506040805190810160405280848152602001838152506013600060115481526020019081526020016000206000820151816000019080519060200190610c4d929190610f3c565b506020820151816001019080519060200190610c6a929190610f3c565b50905050601154905092915050565b60008060009054906101000a900473ffffffffffffffffffffffffffffffffffffffff16905090565b6000809054906101000a900473ffffffffffffffffffffffffffffffffffffffff1681565b6000809054906101000a900473ffffffffffffffffffffffffffffffffffffffff168073ffffffffffffffffffffffffffffffffffffffff163373ffffffffffffffffffffffffffffffffffffffff16141515610d8c576040517f08c379a00000000000000000000000000000000000000000000000000000000081526004018080602001828103825260168152602001807f53656e646572206e6f7420617574686f72697a65642e0000000000000000000081525060200191505060405180910390fd5b81601260008573ffffffffffffffffffffffffffffffffffffffff1673ffffffffffffffffffffffffffffffffffffffff16815260200190815260200160002060006101000a81548160ff021916908315150217905550505050565b6013602052806000526040600020600091509050806000018054600181600116156101000203166002900480601f016020809104026020016040519081016040528092919081815260200182805460018160011615610100020316600290048015610e945780601f10610e6957610100808354040283529160200191610e94565b820191906000526020600020905b815481529060010190602001808311610e7757829003601f168201915b505050505090806001018054600181600116156101000203166002900480601f016020809104026020016040519081016040528092919081815260200182805460018160011615610100020316600290048015610f325780601f10610f0757610100808354040283529160200191610f32565b820191906000526020600020905b815481529060010190602001808311610f1557829003601f168201915b5050505050905082565b828054600181600116156101000203166002900490600052602060002090601f016020900481019282601f10610f7d57805160ff1916838001178555610fab565b82800160010185558215610fab579182015b82811115610faa578251825591602001919060010190610f8f565b5b509050610fb89190610fbc565b5090565b610fde91905b80821115610fda576000816000905550600101610fc2565b5090565b905600a165627a7a72305820ccff5ea8303df90f574a404243ddf1393f58f6e362649a39349a1dc0c0e04c8d0029",
  "source": "pragma solidity ^0.4.7;\r\n\r\ncontract Record {\r\n//variables\r\naddress public owner; \r\nuint[16] private recordArray; //testing -todo replace\r\nuint256 public index;\r\n\r\n//mappings\r\nmapping (address => bool)private allowed; \r\nmapping (uint256 => Records)public recordData;\r\n//data structure\r\nstruct Records {\r\n    string payload; \r\n    string eventID; \r\n}\r\nconstructor() public {\r\n    owner = msg.sender; \r\n    index = 0;\r\n    allowed[owner] = true;\r\n}\r\n\r\nmodifier onlyBy(address _account) {\r\n    require(\r\n    msg.sender == _account, \r\n    \"Sender not authorized.\"\r\n    ); \r\n    _; \r\n}\r\nmodifier hasAccess {\r\n\r\nrequire(\r\nallowed[msg.sender] == true, \r\n\"Sender not authorized.\"\r\n); \r\n_; \r\n}\r\n\r\n\r\n\r\nfunction getOwner()public view returns(address) {\r\n    return owner; \r\n}\r\nfunction modifyAccess(address _usrAddress, bool _permission)public onlyBy(owner) {\r\n\r\n    allowed[_usrAddress] = _permission; \r\n\r\n}\r\n\r\nfunction canAccess(address _usrAddress)public view returns(bool) {\r\n    return (true == allowed[_usrAddress]); \r\n}\r\n\r\nfunction addRecord(uint _record, uint _index)public hasAccess {\r\n    recordArray[_index] = _record; \r\n}\r\n\r\nfunction addData(string _payload, string _eventID) public hasAccess returns (uint256) {\r\n    index++;\r\n    recordData[index]=Records(_payload,_eventID);\r\n\r\n    return index;\r\n}\r\n\r\nfunction getData(uint256 _index)public view  returns (string, string) {\r\n    return (recordData[_index].payload, recordData[_index].eventID);\r\n}\r\n\r\nfunction getPayload(uint256 _index)public view returns (string) {\r\n\r\nreturn recordData[_index].payload;\r\n\r\n}\r\n\r\nfunction getSignature(uint256 _index)public view returns (string) {\r\nreturn recordData[_index].eventID;\r\n\r\n}\r\n\r\n\r\nfunction getRecord(uint _index)public view returns (uint) {\r\nreturn recordArray[_index]; \r\n}\r\n\r\n}\r\n",
  "sourcePath": "C:\\Users\\Edwin\\OneDrive\\2018\\Second Term\\Projects\\Oracle\\src\\onChain\\contracts\\Record.sol",
  "compiler": {
    "name": "solc",
    "version": "0.4.24+commit.e67f0147.Emscripten.clang"
  },
  "schemaVersion": "2.0.1",
  "updatedAt": "2018-10-30T21:52:16.578Z"
}