{
  "contractName": "Record",
  "abi": [
    {
      "constant": true,
      "inputs": [],
      "name": "owner",
      "outputs": [
        {
          "name": "",
          "type": "address"
        }
      ],
      "payable": false,
      "stateMutability": "view",
      "type": "function"
    },
    {
      "constant": true,
      "inputs": [
        {
          "name": "",
          "type": "uint256"
        }
      ],
      "name": "data",
      "outputs": [
        {
          "name": "payload",
          "type": "string"
        },
        {
          "name": "eventID",
          "type": "string"
        }
      ],
      "payable": false,
      "stateMutability": "view",
      "type": "function"
    },
    {
      "inputs": [],
      "payable": false,
      "stateMutability": "nonpayable",
      "type": "constructor"
    },
    {
      "constant": true,
      "inputs": [],
      "name": "getOwner",
      "outputs": [
        {
          "name": "",
          "type": "address"
        }
      ],
      "payable": false,
      "stateMutability": "view",
      "type": "function"
    },
    {
      "constant": false,
      "inputs": [
        {
          "name": "_usrAddress",
          "type": "address"
        },
        {
          "name": "_permission",
          "type": "bool"
        }
      ],
      "name": "modifyAccess",
      "outputs": [],
      "payable": false,
      "stateMutability": "nonpayable",
      "type": "function"
    },
    {
      "constant": true,
      "inputs": [
        {
          "name": "_usrAddress",
          "type": "address"
        }
      ],
      "name": "canAccess",
      "outputs": [
        {
          "name": "",
          "type": "bool"
        }
      ],
      "payable": false,
      "stateMutability": "view",
      "type": "function"
    },
    {
      "constant": false,
      "inputs": [
        {
          "name": "_record",
          "type": "uint256"
        },
        {
          "name": "_index",
          "type": "uint256"
        }
      ],
      "name": "addRecord",
      "outputs": [],
      "payable": false,
      "stateMutability": "nonpayable",
      "type": "function"
    },
    {
      "constant": false,
      "inputs": [
        {
          "name": "_payload",
          "type": "string"
        },
        {
          "name": "_eventID",
          "type": "string"
        }
      ],
      "name": "addData",
      "outputs": [
        {
          "name": "",
          "type": "uint256"
        }
      ],
      "payable": false,
      "stateMutability": "nonpayable",
      "type": "function"
    },
    {
      "constant": true,
      "inputs": [
        {
          "name": "_index",
          "type": "uint256"
        }
      ],
      "name": "getData",
      "outputs": [
        {
          "name": "",
          "type": "string"
        },
        {
          "name": "",
          "type": "string"
        }
      ],
      "payable": false,
      "stateMutability": "view",
      "type": "function"
    },
    {
      "constant": true,
      "inputs": [
        {
          "name": "_index",
          "type": "uint256"
        }
      ],
      "name": "getRecord",
      "outputs": [
        {
          "name": "",
          "type": "uint256"
        }
      ],
      "payable": false,
      "stateMutability": "view",
      "type": "function"
    }
  ],
  "bytecode": "0x608060405234801561001057600080fd5b50336000806101000a81548173ffffffffffffffffffffffffffffffffffffffff021916908373ffffffffffffffffffffffffffffffffffffffff1602179055506000601181905550610cfe806100686000396000f300608060405260043610610099576000357c0100000000000000000000000000000000000000000000000000000000900463ffffffff1680630178fe3f1461009e57806303e9e609146101b0578063130cb150146101f157806318a9d22214610228578063528407e514610283578063893d20e8146103465780638da5cb5b1461039d578063a49efc86146103f4578063f0ba844014610443575b600080fd5b3480156100aa57600080fd5b506100c960048036038101908080359060200190929190505050610555565b604051808060200180602001838103835285818151815260200191508051906020019080838360005b8381101561010d5780820151818401526020810190506100f2565b50505050905090810190601f16801561013a5780820380516001836020036101000a031916815260200191505b50838103825284818151815260200191508051906020019080838360005b83811015610173578082015181840152602081019050610158565b50505050905090810190601f1680156101a05780820380516001836020036101000a031916815260200191505b5094505050505060405180910390f35b3480156101bc57600080fd5b506101db600480360381019080803590602001909291905050506106c5565b6040518082815260200191505060405180910390f35b3480156101fd57600080fd5b5061022660048036038101908080359060200190929190803590602001909291905050506106df565b005b34801561023457600080fd5b50610269600480360381019080803573ffffffffffffffffffffffffffffffffffffffff1690602001909291905050506107c0565b604051808215151515815260200191505060405180910390f35b34801561028f57600080fd5b50610330600480360381019080803590602001908201803590602001908080601f0160208091040260200160405190810160405280939291908181526020018383808284378201915050505050509192919290803590602001908201803590602001908080601f016020809104026020016040519081016040528093929190818152602001838380828437820191505050505050919291929050505061081d565b6040518082815260200191505060405180910390f35b34801561035257600080fd5b5061035b61096a565b604051808273ffffffffffffffffffffffffffffffffffffffff1673ffffffffffffffffffffffffffffffffffffffff16815260200191505060405180910390f35b3480156103a957600080fd5b506103b2610993565b604051808273ffffffffffffffffffffffffffffffffffffffff1673ffffffffffffffffffffffffffffffffffffffff16815260200191505060405180910390f35b34801561040057600080fd5b50610441600480360381019080803573ffffffffffffffffffffffffffffffffffffffff1690602001909291908035151590602001909291905050506109b8565b005b34801561044f57600080fd5b5061046e60048036038101908080359060200190929190505050610ad9565b604051808060200180602001838103835285818151815260200191508051906020019080838360005b838110156104b2578082015181840152602081019050610497565b50505050905090810190601f1680156104df5780820380516001836020036101000a031916815260200191505b50838103825284818151815260200191508051906020019080838360005b838110156105185780820151818401526020810190506104fd565b50505050905090810190601f1680156105455780820380516001836020036101000a031916815260200191505b5094505050505060405180910390f35b6060806013600084815260200190815260200160002060000160136000858152602001908152602001600020600101818054600181600116156101000203166002900480601f0160208091040260200160405190810160405280929190818152602001828054600181600116156101000203166002900480156106195780601f106105ee57610100808354040283529160200191610619565b820191906000526020600020905b8154815290600101906020018083116105fc57829003601f168201915b50505050509150808054600181600116156101000203166002900480601f0160208091040260200160405190810160405280929190818152602001828054600181600116156101000203166002900480156106b55780601f1061068a576101008083540402835291602001916106b5565b820191906000526020600020905b81548152906001019060200180831161069857829003601f168201915b5050505050905091509150915091565b60006001826010811015156106d657fe5b01549050919050565b60011515601260003373ffffffffffffffffffffffffffffffffffffffff1673ffffffffffffffffffffffffffffffffffffffff16815260200190815260200160002060009054906101000a900460ff1615151415156107a7576040517f08c379a00000000000000000000000000000000000000000000000000000000081526004018080602001828103825260168152602001807f53656e646572206e6f7420617574686f72697a65642e0000000000000000000081525060200191505060405180910390fd5b816001826010811015156107b757fe5b01819055505050565b6000601260008373ffffffffffffffffffffffffffffffffffffffff1673ffffffffffffffffffffffffffffffffffffffff16815260200190815260200160002060009054906101000a900460ff16151560011515149050919050565b600060011515601260003373ffffffffffffffffffffffffffffffffffffffff1673ffffffffffffffffffffffffffffffffffffffff16815260200190815260200160002060009054906101000a900460ff1615151415156108e7576040517f08c379a00000000000000000000000000000000000000000000000000000000081526004018080602001828103825260168152602001807f53656e646572206e6f7420617574686f72697a65642e0000000000000000000081525060200191505060405180910390fd5b6040805190810160405280848152602001838152506013600060116000815480929190600101919050558152602001908152602001600020600082015181600001908051906020019061093b929190610c2d565b506020820151816001019080519060200190610958929190610c2d565b50905050600160115403905092915050565b60008060009054906101000a900473ffffffffffffffffffffffffffffffffffffffff16905090565b6000809054906101000a900473ffffffffffffffffffffffffffffffffffffffff1681565b6000809054906101000a900473ffffffffffffffffffffffffffffffffffffffff168073ffffffffffffffffffffffffffffffffffffffff163373ffffffffffffffffffffffffffffffffffffffff16141515610a7d576040517f08c379a00000000000000000000000000000000000000000000000000000000081526004018080602001828103825260168152602001807f53656e646572206e6f7420617574686f72697a65642e0000000000000000000081525060200191505060405180910390fd5b81601260008573ffffffffffffffffffffffffffffffffffffffff1673ffffffffffffffffffffffffffffffffffffffff16815260200190815260200160002060006101000a81548160ff021916908315150217905550505050565b6013602052806000526040600020600091509050806000018054600181600116156101000203166002900480601f016020809104026020016040519081016040528092919081815260200182805460018160011615610100020316600290048015610b855780601f10610b5a57610100808354040283529160200191610b85565b820191906000526020600020905b815481529060010190602001808311610b6857829003601f168201915b505050505090806001018054600181600116156101000203166002900480601f016020809104026020016040519081016040528092919081815260200182805460018160011615610100020316600290048015610c235780601f10610bf857610100808354040283529160200191610c23565b820191906000526020600020905b815481529060010190602001808311610c0657829003601f168201915b5050505050905082565b828054600181600116156101000203166002900490600052602060002090601f016020900481019282601f10610c6e57805160ff1916838001178555610c9c565b82800160010185558215610c9c579182015b82811115610c9b578251825591602001919060010190610c80565b5b509050610ca99190610cad565b5090565b610ccf91905b80821115610ccb576000816000905550600101610cb3565b5090565b905600a165627a7a723058203fdc67d0780ff1a50aba4587370287615f51464eb81703392650c5ad3ccafdfc0029",
  "source": "pragma solidity ^0.4.23;\r\n\r\n\r\ncontract Record {\r\n    //variables\r\n    address public owner;\r\n    uint[16] private records;//testing -todo replace\r\n    uint256 private index;\r\n\r\n    //mappings\r\n    mapping (address => bool) private allowed;\r\n    mapping (uint256 => Records) public data;\r\n    //data structure\r\n    struct Records {\r\n        string payload;\r\n        string eventID;\r\n    }\r\n\r\n    constructor() public {\r\n        owner = msg.sender;\r\n        index = 0;\r\n    }\r\n\r\n    modifier onlyBy(address _account)\r\n    {\r\n        require(\r\n            msg.sender == _account,\r\n            \"Sender not authorized.\"\r\n        );\r\n        _;\r\n    }\r\n    modifier hasAccess {\r\n\r\n        require(\r\n        allowed[msg.sender] == true,\r\n            \"Sender not authorized.\"\r\n        );\r\n        _;\r\n    }\r\n\r\n\r\n\r\n    function getOwner() public view returns(address) {\r\n        return owner;\r\n    }\r\n    function modifyAccess(address _usrAddress , bool _permission) public onlyBy(owner) {\r\n\r\n        allowed[_usrAddress] = _permission;\r\n\r\n    }\r\n\r\n    function canAccess(address _usrAddress) public view returns(bool) {\r\n        return (true == allowed[_usrAddress]);\r\n\r\n    }\r\n\r\n    function addRecord(uint _record , uint _index) public hasAccess {\r\n        records[_index] = _record;\r\n    }\r\n\r\n    function addData(string _payload, string _eventID) public hasAccess returns (uint256) {\r\n        data[index++] = Records(_payload,_eventID);\r\n        return index-1;\r\n    }\r\n\r\n    function getData(uint256 _index) public view returns (string ,string) {\r\n       return (data[_index].payload ,data[_index].eventID);\r\n\r\n    }\r\n\r\n\r\n    function getRecord(uint _index) public view returns (uint) {\r\n        return records[_index];\r\n    }\r\n\r\n}\r\n",
  "sourcePath": "C:\\Users\\Edwin\\OneDrive\\2018\\Second Term\\Projects\\Oracle\\src\\onChain\\contracts\\Record.sol",
  "compiler": {
    "name": "solc",
    "version": "0.4.24+commit.e67f0147.Emscripten.clang"
  },
  "schemaVersion": "2.0.1",
  "updatedAt": "2018-08-18T17:17:42.705Z"
}